{
  "contractName": "BlockBounty",
  "abi": [
    {
      "constant": true,
      "inputs": [
        {
          "name": "",
          "type": "address"
        }
      ],
      "name": "contributions",
      "outputs": [
        {
          "name": "",
          "type": "uint256"
        }
      ],
      "payable": false,
      "stateMutability": "view",
      "type": "function"
    },
    {
      "constant": false,
      "inputs": [
        {
          "name": "contributor",
          "type": "address"
        },
        {
          "name": "numberOfWorks",
          "type": "uint256"
        }
      ],
      "name": "contribute",
      "outputs": [],
      "payable": false,
      "stateMutability": "nonpayable",
      "type": "function"
    },
    {
      "constant": true,
      "inputs": [],
      "name": "owner",
      "outputs": [
        {
          "name": "",
          "type": "address"
        }
      ],
      "payable": false,
      "stateMutability": "view",
      "type": "function"
    },
    {
      "constant": false,
      "inputs": [
        {
          "name": "totalWorkRequired",
          "type": "uint256"
        }
      ],
      "name": "createJob",
      "outputs": [],
      "payable": false,
      "stateMutability": "nonpayable",
      "type": "function"
    },
    {
      "inputs": [],
      "payable": false,
      "stateMutability": "nonpayable",
      "type": "constructor"
    }
  ],
  "bytecode": "0x6060604052341561000f57600080fd5b336000806101000a81548173ffffffffffffffffffffffffffffffffffffffff021916908373ffffffffffffffffffffffffffffffffffffffff1602179055506102948061005e6000396000f300606060405260043610610062576000357c0100000000000000000000000000000000000000000000000000000000900463ffffffff16806342e94c90146100675780638418cd99146100b45780638da5cb5b146100f6578063f4b1d3761461014b575b600080fd5b341561007257600080fd5b61009e600480803573ffffffffffffffffffffffffffffffffffffffff1690602001909190505061016e565b6040518082815260200191505060405180910390f35b34156100bf57600080fd5b6100f4600480803573ffffffffffffffffffffffffffffffffffffffff16906020019091908035906020019091905050610186565b005b341561010157600080fd5b6101096101e5565b604051808273ffffffffffffffffffffffffffffffffffffffff1673ffffffffffffffffffffffffffffffffffffffff16815260200191505060405180910390f35b341561015657600080fd5b61016c600480803590602001909190505061020a565b005b60016020528060005260406000206000915090505481565b6000809054906101000a900473ffffffffffffffffffffffffffffffffffffffff1673ffffffffffffffffffffffffffffffffffffffff163373ffffffffffffffffffffffffffffffffffffffff161415156101e157600080fd5b5050565b6000809054906101000a900473ffffffffffffffffffffffffffffffffffffffff1681565b6000809054906101000a900473ffffffffffffffffffffffffffffffffffffffff1673ffffffffffffffffffffffffffffffffffffffff163373ffffffffffffffffffffffffffffffffffffffff1614151561026557600080fd5b505600a165627a7a72305820800a48551a477f92d42c011c9683b353bf24d56c9582d82cdb150fabceee6d7a0029",
  "source": "pragma solidity ^0.4.18;\n\ncontract BlockBounty {\n\n  address public owner;\n  mapping (address => uint) public contributions;\n\n  modifier isOwner() {\n      require(msg.sender == owner);\n      _;\n  }\n\n  function BlockBounty() public {\n    owner = msg.sender;\n  }\n\n  function createJob(uint totalWorkRequired) isOwner() public {\n\n  }\n\n  function contribute(address contributor, uint numberOfWorks) isOwner() public {\n\n  }\n}\n",
  "sourcePath": "/home/chip/code/BlockBounty/BountyContract/contracts/contract.sol",
  "compiler": {
    "name": "solc",
    "version": "0.4.18+commit.9cf6e910.Emscripten.clang"
  },
  "schemaVersion": "1.0.1",
  "updatedAt": "2017-12-02T02:19:52.075Z"
}