{
  "contractName": "BlockBounty",
  "abi": [
    {
      "constant": false,
      "inputs": [
        {
          "name": "balanceRecipient",
          "type": "address"
        }
      ],
      "name": "destroy",
      "outputs": [],
      "payable": false,
      "stateMutability": "nonpayable",
      "type": "function"
    },
    {
      "constant": true,
      "inputs": [],
      "name": "totalWorkRequired",
      "outputs": [
        {
          "name": "",
          "type": "uint256"
        }
      ],
      "payable": false,
      "stateMutability": "view",
      "type": "function"
    },
    {
      "constant": false,
      "inputs": [
        {
          "name": "_totalWorkRequired",
          "type": "uint256"
        },
        {
          "name": "_totalJobPayout",
          "type": "uint256"
        }
      ],
      "name": "createJob",
      "outputs": [],
      "payable": true,
      "stateMutability": "payable",
      "type": "function"
    },
    {
      "constant": true,
      "inputs": [],
      "name": "workDoneSoFar",
      "outputs": [
        {
          "name": "",
          "type": "uint256"
        }
      ],
      "payable": false,
      "stateMutability": "view",
      "type": "function"
    },
    {
      "constant": true,
      "inputs": [
        {
          "name": "",
          "type": "uint256"
        }
      ],
      "name": "contributors",
      "outputs": [
        {
          "name": "",
          "type": "address"
        }
      ],
      "payable": false,
      "stateMutability": "view",
      "type": "function"
    },
    {
      "constant": true,
      "inputs": [
        {
          "name": "",
          "type": "address"
        }
      ],
      "name": "contributions",
      "outputs": [
        {
          "name": "contributions",
          "type": "uint256"
        },
        {
          "name": "isContributor",
          "type": "bool"
        }
      ],
      "payable": false,
      "stateMutability": "view",
      "type": "function"
    },
    {
      "constant": false,
      "inputs": [
        {
          "name": "contributor",
          "type": "address"
        },
        {
          "name": "numberOfWorks",
          "type": "uint256"
        }
      ],
      "name": "contribute",
      "outputs": [],
      "payable": false,
      "stateMutability": "nonpayable",
      "type": "function"
    },
    {
      "constant": true,
      "inputs": [],
      "name": "totalJobPayout",
      "outputs": [
        {
          "name": "",
          "type": "uint256"
        }
      ],
      "payable": false,
      "stateMutability": "view",
      "type": "function"
    },
    {
      "constant": true,
      "inputs": [],
      "name": "owner",
      "outputs": [
        {
          "name": "",
          "type": "address"
        }
      ],
      "payable": false,
      "stateMutability": "view",
      "type": "function"
    },
    {
      "inputs": [],
      "payable": false,
      "stateMutability": "nonpayable",
      "type": "constructor"
    }
  ],
  "bytecode": "0x6060604052341561000f57600080fd5b33600360006101000a81548173ffffffffffffffffffffffffffffffffffffffff021916908373ffffffffffffffffffffffffffffffffffffffff1602179055506108298061005f6000396000f300606060405260043610610098576000357c0100000000000000000000000000000000000000000000000000000000900463ffffffff168062f55d9d1461009d57806321d85660146100d6578063220578e3146100ff5780633cac3dfc146101205780633cb5d1001461014957806342e94c90146101ac5780638418cd9914610204578063846e5a7d146102465780638da5cb5b1461026f575b600080fd5b34156100a857600080fd5b6100d4600480803573ffffffffffffffffffffffffffffffffffffffff169060200190919050506102c4565b005b34156100e157600080fd5b6100e9610339565b6040518082815260200191505060405180910390f35b61011e600480803590602001909190803590602001909190505061033f565b005b341561012b57600080fd5b6101336103bb565b6040518082815260200191505060405180910390f35b341561015457600080fd5b61016a60048080359060200190919050506103c1565b604051808273ffffffffffffffffffffffffffffffffffffffff1673ffffffffffffffffffffffffffffffffffffffff16815260200191505060405180910390f35b34156101b757600080fd5b6101e3600480803573ffffffffffffffffffffffffffffffffffffffff16906020019091905050610400565b60405180838152602001821515151581526020019250505060405180910390f35b341561020f57600080fd5b610244600480803573ffffffffffffffffffffffffffffffffffffffff16906020019091908035906020019091905050610431565b005b341561025157600080fd5b61025961068a565b6040518082815260200191505060405180910390f35b341561027a57600080fd5b610282610690565b604051808273ffffffffffffffffffffffffffffffffffffffff1673ffffffffffffffffffffffffffffffffffffffff16815260200191505060405180910390f35b600360009054906101000a900473ffffffffffffffffffffffffffffffffffffffff1673ffffffffffffffffffffffffffffffffffffffff163373ffffffffffffffffffffffffffffffffffffffff1614151561032057600080fd5b8073ffffffffffffffffffffffffffffffffffffffff16ff5b60005481565b600360009054906101000a900473ffffffffffffffffffffffffffffffffffffffff1673ffffffffffffffffffffffffffffffffffffffff163373ffffffffffffffffffffffffffffffffffffffff1614151561039b57600080fd5b34811415156103a957600080fd5b81600081905550806001819055505050565b60025481565b6005818154811015156103d057fe5b90600052602060002090016000915054906101000a900473ffffffffffffffffffffffffffffffffffffffff1681565b60046020528060005260406000206000915090508060000154908060010160009054906101000a900460ff16905082565b6000600360009054906101000a900473ffffffffffffffffffffffffffffffffffffffff1673ffffffffffffffffffffffffffffffffffffffff163373ffffffffffffffffffffffffffffffffffffffff1614151561048f57600080fd5b6000546002541015156104a157600080fd5b600460008473ffffffffffffffffffffffffffffffffffffffff1673ffffffffffffffffffffffffffffffffffffffff16815260200190815260200160002060010160009054906101000a900460ff1615156105b6576001600460008573ffffffffffffffffffffffffffffffffffffffff1673ffffffffffffffffffffffffffffffffffffffff16815260200190815260200160002060010160006101000a81548160ff0219169083151502179055506005805480600101828161056691906107ac565b9160005260206000209001600085909190916101000a81548173ffffffffffffffffffffffffffffffffffffffff021916908373ffffffffffffffffffffffffffffffffffffffff160217905550505b81600460008573ffffffffffffffffffffffffffffffffffffffff1673ffffffffffffffffffffffffffffffffffffffff16815260200190815260200160002060000160008282540192505081905550816002600082825401925050819055506000546002541015156106855760005460025403905080600460008573ffffffffffffffffffffffffffffffffffffffff1673ffffffffffffffffffffffffffffffffffffffff168152602001908152602001600020600001600082825403925050819055506106846106b6565b5b505050565b60015481565b600360009054906101000a900473ffffffffffffffffffffffffffffffffffffffff1681565b600080600091505b6005805490508210156107a8576005828154811015156106da57fe5b906000526020600020900160009054906101000a900473ffffffffffffffffffffffffffffffffffffffff1690508073ffffffffffffffffffffffffffffffffffffffff166108fc600054600460008573ffffffffffffffffffffffffffffffffffffffff1673ffffffffffffffffffffffffffffffffffffffff168152602001908152602001600020600001546001540281151561077557fe5b049081150290604051600060405180830381858888f19350505050151561079b57600080fd5b81806001019250506106be565b5050565b8154818355818115116107d3578183600052602060002091820191016107d291906107d8565b5b505050565b6107fa91905b808211156107f65760008160009055506001016107de565b5090565b905600a165627a7a723058205ee2d3a309381335789d666e94eeb8514ea04f7dd49ff03a9c1602fe353a3e270029",
  "source": "pragma solidity ^0.4.18;\n\ncontract BlockBounty {\n\n  uint public totalWorkRequired;\n  uint public totalJobPayout;\n  uint public workDoneSoFar;\n  address public owner;\n  mapping (address => Contribution) public contributions;\n  address[] public contributors;\n\n  struct Contribution {\n    uint contributions;\n    bool isContributor;\n  }\n\n  //TOOD: modifier to prevent anything from happening once the job is done\n\n  modifier isOwner() {\n      require(msg.sender == owner);\n      _;\n  }\n\n  function BlockBounty() public {\n    owner = msg.sender;\n  }\n\n  function createJob(uint _totalWorkRequired, uint _totalJobPayout) isOwner() payable public {\n    require(_totalJobPayout == msg.value);\n    totalWorkRequired = _totalWorkRequired;\n    totalJobPayout = _totalJobPayout;\n  }\n\n  function contribute(address contributor, uint numberOfWorks) isOwner() public {\n    require(workDoneSoFar < totalWorkRequired);\n    if (!contributions[contributor].isContributor) {\n      contributions[contributor].isContributor = true;\n      contributors.push(contributor);\n    }\n    contributions[contributor].contributions += numberOfWorks;\n    workDoneSoFar += numberOfWorks;\n    if (workDoneSoFar >= totalWorkRequired) {\n      uint extraWork = workDoneSoFar - totalWorkRequired;\n      contributions[contributor].contributions -= extraWork;\n      payEveryone();\n    }\n  }\n\n  function payEveryone() private {\n    for (uint i = 0; i < contributors.length; i++) {\n      address contributor = contributors[i];\n      contributor.transfer(totalJobPayout * contributions[contributor].contributions / totalWorkRequired); //WARN: integer math and fees lead to errors\n    }\n  }\n\n  function destroy(address balanceRecipient) isOwner() public {\n    selfdestruct(balanceRecipient);\n  }\n}\n",
  "sourcePath": "/home/chip/code/BlockBounty/BountyContract/contracts/BlockBounty.sol",
  "compiler": {
    "name": "solc",
    "version": "0.4.18+commit.9cf6e910.Emscripten.clang"
  },
  "schemaVersion": "1.0.1",
  "updatedAt": "2017-12-10T02:11:51.692Z"
}