{
  "contractName": "BlockBounty",
  "abi": [
    {
      "constant": true,
      "inputs": [],
      "name": "workDoneSoFar",
      "outputs": [
        {
          "name": "",
          "type": "uint256"
        }
      ],
      "payable": false,
      "stateMutability": "view",
      "type": "function"
    },
    {
      "constant": true,
      "inputs": [
        {
          "name": "",
          "type": "uint256"
        }
      ],
      "name": "contributors",
      "outputs": [
        {
          "name": "",
          "type": "address"
        }
      ],
      "payable": false,
      "stateMutability": "view",
      "type": "function"
    },
    {
      "constant": true,
      "inputs": [
        {
          "name": "",
          "type": "address"
        }
      ],
      "name": "contributions",
      "outputs": [
        {
          "name": "contributions",
          "type": "uint256"
        },
        {
          "name": "isContributor",
          "type": "bool"
        }
      ],
      "payable": false,
      "stateMutability": "view",
      "type": "function"
    },
    {
      "constant": true,
      "inputs": [],
      "name": "totalJobPayout",
      "outputs": [
        {
          "name": "",
          "type": "uint256"
        }
      ],
      "payable": false,
      "stateMutability": "view",
      "type": "function"
    },
    {
      "constant": true,
      "inputs": [],
      "name": "owner",
      "outputs": [
        {
          "name": "",
          "type": "address"
        }
      ],
      "payable": false,
      "stateMutability": "view",
      "type": "function"
    },
    {
      "inputs": [],
      "payable": false,
      "stateMutability": "nonpayable",
      "type": "constructor"
    },
    {
      "constant": false,
      "inputs": [
        {
          "name": "_totalJobPayout",
          "type": "uint256"
        }
      ],
      "name": "createJob",
      "outputs": [],
      "payable": true,
      "stateMutability": "payable",
      "type": "function"
    },
    {
      "constant": false,
      "inputs": [
        {
          "name": "contributor",
          "type": "address"
        },
        {
          "name": "numberOfWorks",
          "type": "uint256"
        }
      ],
      "name": "contribute",
      "outputs": [],
      "payable": false,
      "stateMutability": "nonpayable",
      "type": "function"
    },
    {
      "constant": false,
      "inputs": [],
      "name": "payEveryone",
      "outputs": [],
      "payable": false,
      "stateMutability": "nonpayable",
      "type": "function"
    },
    {
      "constant": false,
      "inputs": [
        {
          "name": "balanceRecipient",
          "type": "address"
        }
      ],
      "name": "destroy",
      "outputs": [],
      "payable": false,
      "stateMutability": "nonpayable",
      "type": "function"
    }
  ],
  "bytecode": "0x6060604052341561000f57600080fd5b33600260006101000a81548173ffffffffffffffffffffffffffffffffffffffff021916908373ffffffffffffffffffffffffffffffffffffffff1602179055506107d68061005f6000396000f300606060405260043610610098576000357c0100000000000000000000000000000000000000000000000000000000900463ffffffff168062f55d9d1461009d5780633cac3dfc146100d65780633cb5d100146100ff57806342e94c90146101625780638418cd99146101ba578063846e5a7d146101fc5780638da5cb5b14610225578063e70b9ec71461027a578063f4b1d3761461028f575b600080fd5b34156100a857600080fd5b6100d4600480803573ffffffffffffffffffffffffffffffffffffffff169060200190919050506102a7565b005b34156100e157600080fd5b6100e961031c565b6040518082815260200191505060405180910390f35b341561010a57600080fd5b6101206004808035906020019091905050610322565b604051808273ffffffffffffffffffffffffffffffffffffffff1673ffffffffffffffffffffffffffffffffffffffff16815260200191505060405180910390f35b341561016d57600080fd5b610199600480803573ffffffffffffffffffffffffffffffffffffffff16906020019091905050610361565b60405180838152602001821515151581526020019250505060405180910390f35b34156101c557600080fd5b6101fa600480803573ffffffffffffffffffffffffffffffffffffffff16906020019091908035906020019091905050610392565b005b341561020757600080fd5b61020f610567565b6040518082815260200191505060405180910390f35b341561023057600080fd5b61023861056d565b604051808273ffffffffffffffffffffffffffffffffffffffff1673ffffffffffffffffffffffffffffffffffffffff16815260200191505060405180910390f35b341561028557600080fd5b61028d610593565b005b6102a560048080359060200190919050506106e5565b005b600260009054906101000a900473ffffffffffffffffffffffffffffffffffffffff1673ffffffffffffffffffffffffffffffffffffffff163373ffffffffffffffffffffffffffffffffffffffff1614151561030357600080fd5b8073ffffffffffffffffffffffffffffffffffffffff16ff5b60015481565b60048181548110151561033157fe5b90600052602060002090016000915054906101000a900473ffffffffffffffffffffffffffffffffffffffff1681565b60036020528060005260406000206000915090508060000154908060010160009054906101000a900460ff16905082565b600260009054906101000a900473ffffffffffffffffffffffffffffffffffffffff1673ffffffffffffffffffffffffffffffffffffffff163373ffffffffffffffffffffffffffffffffffffffff161415156103ee57600080fd5b600360008373ffffffffffffffffffffffffffffffffffffffff1673ffffffffffffffffffffffffffffffffffffffff16815260200190815260200160002060010160009054906101000a900460ff161515610503576001600360008473ffffffffffffffffffffffffffffffffffffffff1673ffffffffffffffffffffffffffffffffffffffff16815260200190815260200160002060010160006101000a81548160ff021916908315150217905550600480548060010182816104b39190610759565b9160005260206000209001600084909190916101000a81548173ffffffffffffffffffffffffffffffffffffffff021916908373ffffffffffffffffffffffffffffffffffffffff160217905550505b80600360008473ffffffffffffffffffffffffffffffffffffffff1673ffffffffffffffffffffffffffffffffffffffff16815260200190815260200160002060000160008282540192505081905550806001600082825401925050819055505050565b60005481565b600260009054906101000a900473ffffffffffffffffffffffffffffffffffffffff1681565b600080600260009054906101000a900473ffffffffffffffffffffffffffffffffffffffff1673ffffffffffffffffffffffffffffffffffffffff163373ffffffffffffffffffffffffffffffffffffffff161415156105f257600080fd5b600091505b6004805490508210156106e15760048281548110151561061357fe5b906000526020600020900160009054906101000a900473ffffffffffffffffffffffffffffffffffffffff1690508073ffffffffffffffffffffffffffffffffffffffff166108fc600154600360008573ffffffffffffffffffffffffffffffffffffffff1673ffffffffffffffffffffffffffffffffffffffff16815260200190815260200160002060000154600054028115156106ae57fe5b049081150290604051600060405180830381858888f1935050505015156106d457600080fd5b81806001019250506105f7565b5050565b600260009054906101000a900473ffffffffffffffffffffffffffffffffffffffff1673ffffffffffffffffffffffffffffffffffffffff163373ffffffffffffffffffffffffffffffffffffffff1614151561074157600080fd5b348114151561074f57600080fd5b8060008190555050565b8154818355818115116107805781836000526020600020918201910161077f9190610785565b5b505050565b6107a791905b808211156107a357600081600090555060010161078b565b5090565b905600a165627a7a723058206779365a0fbf8e0192d6c1cfa470113603b40bbb89d1a23dafed78d74635d1d60029",
  "source": "pragma solidity ^0.4.18;\n\ncontract BlockBounty {\n\n  uint public totalJobPayout;\n  uint public workDoneSoFar;\n  address public owner;\n  mapping (address => Contribution) public contributions;\n  address[] public contributors;\n\n  struct Contribution {\n    uint contributions;\n    bool isContributor;\n  }\n\n  //TOOD: modifier to prevent anything from happening once the job is done\n\n  modifier isOwner() {\n      require(msg.sender == owner);\n      _;\n  }\n\n  function BlockBounty() public {\n    owner = msg.sender;\n  }\n\n  function createJob(uint _totalJobPayout) isOwner() payable public {\n    require(_totalJobPayout == msg.value);\n    totalJobPayout = _totalJobPayout;\n  }\n\n  function contribute(address contributor, uint numberOfWorks) isOwner() public {\n    if (!contributions[contributor].isContributor) {\n      contributions[contributor].isContributor = true;\n      contributors.push(contributor);\n    }\n    contributions[contributor].contributions += numberOfWorks;\n    workDoneSoFar += numberOfWorks;\n  }\n\n  function payEveryone() isOwner() public {\n    for (uint i = 0; i < contributors.length; i++) {\n      address contributor = contributors[i];\n      contributor.transfer(totalJobPayout * contributions[contributor].contributions / workDoneSoFar); //WARN: integer math leads to errors\n    }\n  }\n\n  function destroy(address balanceRecipient) isOwner() public {\n    selfdestruct(balanceRecipient);\n  }\n}\n",
  "sourcePath": "/home/chip/code/BlockBounty/BountyContract/contracts/BlockBounty.sol",
  "compiler": {
    "name": "solc",
    "version": "0.4.19+commit.c4cbbb05.Emscripten.clang"
  },
  "schemaVersion": "1.0.1",
  "updatedAt": "2018-02-25T23:09:25.120Z"
}